:1000000012C02CC02BC02AC029C028C027C026C0BF
:10001000D9C024C023C022C021C020C01FC01EC020
:100020001DC01CC01BC011241FBECFE5D4E0DEBF25
:10003000CDBF10E0A0E6B0E0EAE0FAE002C0059033
:100040000D92AE38B107D9F710E0AEE8B0E001C0CC
:100050001D92AA39B107E1F7C8D1D5C4D1CF8CE13F
:100060008EBD82E08FBD84E089BF81E19AE797BDB4
:1000700086BD0895AC9882E0982F9A95F1F7AC9AD6
:100080008A95F1F7AC9888EC90E00197F1F7089524
:1000900080FF02C0AB9A01C0AB9881FF02C0AA9A50
:1000A00001C0AA9882FF02C0A99A01C0A99883FF43
:1000B00002C0A89A01C0A898DDCF1F93182F66230D
:1000C00011F0AD9A01C0AD98812F82958F70E0DF5D
:1000D000812FDEDF1F91089561E0EFCF60E0EDCF6B
:1000E00080919300982F9460909393008C60F6CF4A
:1000F00081E0F4DF80EA9FE00197F1F708950F9324
:100100001F9328E0209392006093950010928E0038
:1001100020E420938F008093900090E0805C9F4FBC
:1001200080939100A59AA49AA39AA29AA19AA09AC0
:1001300083E0AEDF08E213E2C8010197F1F783E044
:10014000A7DFC8010197F1F783E0A2DF8CE291E01D
:100150000197F1F782E09CDF809192008062BEDF20
:1001600084E080939300BCDFC3DF82E0809394003F
:1001700086E0B4DF1F910F910895982F643008F046
:1001800063E080919500681710F0682F6150E62FAA
:10019000F0E0E257FF4F8081890F80689FCFCF93B7
:1001A000DF93EA01EADF02C097DF21968881882386
:1001B000D9F7DF91CF9108958A98929ABA9AB99A0D
:1001C0008C9A08951F920F920FB60F9211248F935D
:1001D00081E0809399008F910F900FBE0F901F9038
:1001E00018950F931F93DF93CF93CDB7DEB760972A
:1001F0000FB6F894DEBF0FBECDBF809198008E0180
:100200000F5F1F4F20E630E08823E1F08DB79EB7E7
:1002100008970FB6F8949EBF0FBE8DBFEDB7FEB71F
:100220003196ADB7BEB712961C930E9311973383D8
:10023000228380918C0090918D009583848380919E
:10024000970019C0EDB7FEB738970FB6F894FEBF08
:100250000FBEEDBF3196ADB7BEB712961C930E938D
:1002600011973383228380918A0090918B0095832C
:1002700084838091960086831782FFD0EDB7FEB706
:1002800038960FB6F894FEBF0FBEEDBF80E061E078
:10029000A80185DF80E1D8011D928A95E9F7609673
:1002A0000FB6F894DEBF0FBECDBFCF91DF911F9187
:1002B0000F9108950F931F93DF93CF93CDB7DEB7C0
:1002C00060970FB6F894DEBF0FBECDBF81E080937C
:1002D0009800C19AC298949A8AE090E090938D0019
:1002E00080938C00109297008E010F5F1F4FC80102
:1002F0006AE670E0BBD080E060E0A80150DF80E1FA
:10030000F80111928A95E9F760960FB6F894DEBF6E
:100310000FBECDBFCF91DF911F910F9108950F9325
:100320001F93DF93CF93CDB7DEB760970FB6F894E6
:10033000DEBF0FBECDBF10929800C198C29A9498AC
:1003400088E691E090938B0080938A00109296004B
:100350008E010F5F1F4FC80164E770E087D080E017
:1003600060E0A8011CDF80E1F80111928A95E9F7AD
:1003700060960FB6F894DEBF0FBECDBFCF91DF9170
:100380001F910F910895809198008823B9F480916E
:100390009600882379F480918A0090918B000097D1
:1003A00011F488DF21C0019790938B0080938A001D
:1003B0008BE301C081508093960016C08091970016
:1003C000882379F480918C0090918D00009711F42E
:1003D000A6DF0AC0019790938D0080938C008BE379
:1003E00001C0815080939700FCCECF93DF93E4DE71
:1003F000F89435DE789480E162E081DE80E060E0B0
:100400004EE750E0CCDE88E893E128EC30E0F901DB
:100410003197F1F70197D9F76BDE81DFC8ECD0E0B7
:10042000829917C084EC99E0FE013197F1F70197AA
:10043000D9F7829BFECF84EC99E0FE013197F1F76A
:100440000197D9F780919800882311F433DF01C018
:1004500066DF80919900882319F39091990080912B
:1004600099008927809399008EDFDACFFB01DC01A8
:1004700001900D920020E1F70895AEE0B0E0E2E4D3
:10048000F2E098C20D891E8986E08C831A83098365
:100490008FEF9FE79E838D839E01275E3F4FCE01A6
:1004A00001966F89788DA90109D02F813885020FB7
:1004B000131FF80110822E96E4E098C2ABE0B0E082
:1004C000E3E6F2E069C23C012B015A01FC0117820C
:1004D0001682838181FD03C06FEF7FEFB9C19AE07F
:1004E000892E1E010894211C311CF3012381F20185
:1004F00023FD859123FF81912F01882309F4A5C154
:10050000853239F423FD859123FF81912F018532B6
:1005100021F490E0B301B6D1E8CF982FFF24EE2468
:100520009924FFE1FF15D0F09B3269F09C3228F44A
:10053000903259F0933291F40EC09D3249F09033CD
:1005400069F441E024C052E0F52A84E0F82A28C08A
:1005500098E0F92A25C0E0E1FE2A22C0F7FC29C074
:10056000892F80538A3070F4F6FE05C0989C902C39
:100570001124980E15C0E89CE02C1124E80EF0E23E
:10058000FF2A0EC09E3229F4F6FC5FC140E4F42A33
:1005900007C09C3619F450E8F52A02C0983649F491
:1005A000F20123FD959123FF91912F01992309F0E9
:1005B000B8CF892F8554833018F08052833038F4B7
:1005C00044E050E0A40EB51E5FE359830FC093369C
:1005D00031F0933779F0933509F052C01FC0F5011F
:1005E0008081898342E050E0A40EB51E610101E0E4
:1005F00010E011C0F501C080D180F6FC03C06FEFA0
:100600007FEF02C0692D70E042E050E0A40EB51EFD
:10061000C6012DD18C015FE7F52213C0F501C08022
:10062000D180F6FC03C06FEF7FEF02C0692D70E050
:1006300042E050E0A40EB51EC6010ED18C0150E878
:10064000F52AF3FE06C018C080E290E0B3011AD18B
:10065000EA948E2D90E008171907B0F30DC0F6014B
:10066000F7FC8591F7FE81916F0190E0B3010AD10B
:10067000E110EA94015010400115110581F7E2C024
:10068000943611F0993661F5F7FE08C0F501208126
:1006900031814281538184E090E00AC0F50180817C
:1006A00091819C01442737FD4095542F82E090E0D2
:1006B000A80EB91E9FE6F92257FF09C05095409534
:1006C000309521953F4F4F4F5F4FE0E8FE2ACA011A
:1006D000B901A1012AE030E001D1D82ED2183FC0E3
:1006E000953729F41F2D1F7E2AE030E01DC01F2DF5
:1006F000197F9F3661F0903720F4983509F0A5C036
:100700000FC0903739F0983709F09FC004C028E037
:1007100030E00AC0106114FD146020E130E004C034
:1007200014FD166020E132E017FF08C0F50160817A
:1007300071818281938144E050E008C0F50180819D
:100740009181BC0180E090E042E050E0A40EB51E33
:10075000A101C4D0D82ED2188FE7F82EF122F6FED0
:100760000BC05EEFF522D91438F4F4FE07C0F2FC9A
:1007700005C08FEEF82202C01D2D01C0192DF4FE18
:100780000DC0FE01ED0DF11D8081803319F499EE4D
:10079000F92208C01F5FF2FE05C003C08F2D8678C6
:1007A00009F01F5F0F2DF3FC13C0F0FE0EC01E15E5
:1007B00010F09D2C0AC09D2C9E0C911A1E2D05C078
:1007C00080E290E0B3015ED01F5F1E15C8F304C045
:1007D0001E1510F4E11A01C0EE2404FF0EC080E3E0
:1007E00090E0B3014FD002FF1BC001FD03C088E7BA
:1007F00090E00EC088E590E00BC0802F867881F0F5
:1008000001FF02C08BE201C080E2F7FC8DE290E0C4
:10081000B30138D005C080E390E0B30133D09A949F
:10082000D914C8F3DA94F101ED0DF11D808190E047
:10083000B30128D0DD20B1F705C080E290E0B3011C
:1008400021D0EA94EE20C9F750CEF301668177817A
:10085000CB012B96E2E1BCC0FC01059061507040D9
:100860000110D8F7809590958E0F9F1F0895FC0179
:100870006150704001900110D8F7809590958E0FCF
:100880009F1F08950F931F93CF93DF938C01EB016C
:100890008B8181FF1BC082FF0DC02E813F818C8127
:1008A0009D812817390764F4E881F9810193F98360
:1008B000E88306C0E885F985802F0995892B31F4F6
:1008C0008E819F8101969F838E8302C00FEF1FEF61
:1008D000C801DF91CF911F910F910895FA01AA27C6
:1008E000283051F1203181F1E8946F936E7F6E5F73
:1008F0007F4F8F4F9F4FAF4FB1E03ED0B4E03CD021
:10090000670F781F891F9A1FA11D680F791F8A1F03
:10091000911DA11D6A0F711D811D911DA11D20D06A
:1009200009F468943F912AE0269F11243019305D24
:100930003193DEF6CF010895462F4770405D419315
:10094000B3E00FD0C9F7F6CF462F4F70405D4A3362
:1009500018F0495D31FD4052419302D0A9F7EACF2A
:10096000B4E0A6959795879577956795BA95C9F759
:1009700000976105710508959B01AC010A2E06944C
:100980005795479537952795BA95C9F7620F731F05
:10099000841F951FA01D08952F923F924F925F9242
:1009A0006F927F928F929F92AF92BF92CF92DF927F
:1009B000EF92FF920F931F93CF93DF93CDB7DEB7E4
:1009C000CA1BDB0B0FB6F894DEBF0FBECDBF099478
:1009D0002A88398848885F846E847D848C849B84CF
:1009E000AA84B984C884DF80EE80FD800C811B81DD
:1009F000AA81B981CE0FD11D0FB6F894DEBF0FBE0C
:0A0A0000CDBFED010895F894FFCF7B
:100A0A0025332E643A252E3264004C696761646F7F
:100A1A00202020004465736C696761646F00537419
:0E0A2A00617274696E672E2E2E0068010A003C
:00000001FF
